{
  "contractName": "LendingAgency",
  "abi": [
    {
      "inputs": [],
      "stateMutability": "nonpayable",
      "type": "constructor"
    },
    {
      "anonymous": false,
      "inputs": [
        {
          "indexed": true,
          "internalType": "uint256",
          "name": "id",
          "type": "uint256"
        },
        {
          "indexed": false,
          "internalType": "address",
          "name": "borrower",
          "type": "address"
        }
      ],
      "name": "LoanBorrowed",
      "type": "event"
    },
    {
      "anonymous": false,
      "inputs": [
        {
          "indexed": true,
          "internalType": "uint256",
          "name": "id",
          "type": "uint256"
        },
        {
          "indexed": false,
          "internalType": "uint256",
          "name": "availableFunds",
          "type": "uint256"
        },
        {
          "indexed": false,
          "internalType": "address",
          "name": "borrower",
          "type": "address"
        }
      ],
      "name": "LoanGranted",
      "type": "event"
    },
    {
      "anonymous": false,
      "inputs": [
        {
          "indexed": true,
          "internalType": "uint256",
          "name": "id",
          "type": "uint256"
        },
        {
          "indexed": false,
          "internalType": "address",
          "name": "borrower",
          "type": "address"
        }
      ],
      "name": "LoanRepaid",
      "type": "event"
    },
    {
      "inputs": [],
      "name": "currentLoanId",
      "outputs": [
        {
          "internalType": "uint256",
          "name": "",
          "type": "uint256"
        }
      ],
      "stateMutability": "view",
      "type": "function",
      "constant": true
    },
    {
      "inputs": [
        {
          "internalType": "uint256",
          "name": "",
          "type": "uint256"
        }
      ],
      "name": "loans",
      "outputs": [
        {
          "internalType": "uint256",
          "name": "id",
          "type": "uint256"
        },
        {
          "internalType": "uint256",
          "name": "availableFunds",
          "type": "uint256"
        },
        {
          "internalType": "address",
          "name": "borrower",
          "type": "address"
        },
        {
          "internalType": "uint256",
          "name": "interest",
          "type": "uint256"
        },
        {
          "internalType": "uint256",
          "name": "repayTime",
          "type": "uint256"
        },
        {
          "internalType": "uint256",
          "name": "repayed",
          "type": "uint256"
        },
        {
          "internalType": "uint256",
          "name": "loanStartTime",
          "type": "uint256"
        },
        {
          "internalType": "uint256",
          "name": "borrowed",
          "type": "uint256"
        },
        {
          "internalType": "bool",
          "name": "isLoanActive",
          "type": "bool"
        }
      ],
      "stateMutability": "view",
      "type": "function",
      "constant": true
    },
    {
      "inputs": [],
      "name": "owner",
      "outputs": [
        {
          "internalType": "address",
          "name": "",
          "type": "address"
        }
      ],
      "stateMutability": "view",
      "type": "function",
      "constant": true
    },
    {
      "inputs": [
        {
          "internalType": "address",
          "name": "",
          "type": "address"
        },
        {
          "internalType": "uint256",
          "name": "",
          "type": "uint256"
        }
      ],
      "name": "userLoanIds",
      "outputs": [
        {
          "internalType": "uint256",
          "name": "",
          "type": "uint256"
        }
      ],
      "stateMutability": "view",
      "type": "function",
      "constant": true
    },
    {
      "inputs": [
        {
          "internalType": "address",
          "name": "_borrower",
          "type": "address"
        },
        {
          "internalType": "uint256",
          "name": "_repayTime",
          "type": "uint256"
        },
        {
          "internalType": "uint256",
          "name": "_interest",
          "type": "uint256"
        }
      ],
      "name": "grantLoan",
      "outputs": [],
      "stateMutability": "payable",
      "type": "function",
      "payable": true
    },
    {
      "inputs": [],
      "name": "getLoans",
      "outputs": [
        {
          "components": [
            {
              "internalType": "uint256",
              "name": "id",
              "type": "uint256"
            },
            {
              "internalType": "uint256",
              "name": "availableFunds",
              "type": "uint256"
            },
            {
              "internalType": "address",
              "name": "borrower",
              "type": "address"
            },
            {
              "internalType": "uint256",
              "name": "interest",
              "type": "uint256"
            },
            {
              "internalType": "uint256",
              "name": "repayTime",
              "type": "uint256"
            },
            {
              "internalType": "uint256",
              "name": "repayed",
              "type": "uint256"
            },
            {
              "internalType": "uint256",
              "name": "loanStartTime",
              "type": "uint256"
            },
            {
              "internalType": "uint256",
              "name": "borrowed",
              "type": "uint256"
            },
            {
              "internalType": "bool",
              "name": "isLoanActive",
              "type": "bool"
            }
          ],
          "internalType": "struct LendingAgency.Loan[]",
          "name": "",
          "type": "tuple[]"
        }
      ],
      "stateMutability": "view",
      "type": "function",
      "constant": true
    },
    {
      "inputs": [
        {
          "internalType": "address",
          "name": "_borrower",
          "type": "address"
        }
      ],
      "name": "getUserLoanIds",
      "outputs": [
        {
          "internalType": "uint256[]",
          "name": "",
          "type": "uint256[]"
        }
      ],
      "stateMutability": "view",
      "type": "function",
      "constant": true
    },
    {
      "inputs": [
        {
          "internalType": "uint256",
          "name": "_loanId",
          "type": "uint256"
        }
      ],
      "name": "borrow",
      "outputs": [],
      "stateMutability": "payable",
      "type": "function",
      "payable": true
    },
    {
      "inputs": [
        {
          "internalType": "uint256",
          "name": "_loanId",
          "type": "uint256"
        }
      ],
      "name": "repay",
      "outputs": [],
      "stateMutability": "payable",
      "type": "function",
      "payable": true
    }
  ],
  "bytecode": "0x60806040526000805534801561001457600080fd5b5033600360006101000a81548173ffffffffffffffffffffffffffffffffffffffff021916908373ffffffffffffffffffffffffffffffffffffffff16021790555061192a806100656000396000f3fe6080604052600436106100865760003560e01c806387f7d5bd1161005957806387f7d5bd1461013d5780638da5cb5b14610168578063aa4a871114610193578063c5ebeaec146101be578063e1ec3c68146101da57610086565b806317fd56ba1461008b578063371fd8e6146100c857806348defde3146100e45780637ad4994a14610121575b600080fd5b34801561009757600080fd5b506100b260048036038101906100ad9190610fc2565b61021f565b6040516100bf91906110b7565b60405180910390f35b6100e260048036038101906100dd9190611105565b6102b6565b005b3480156100f057600080fd5b5061010b60048036038101906101069190611132565b61078e565b6040516101189190611181565b60405180910390f35b61013b6004803603810190610136919061119c565b6107bf565b005b34801561014957600080fd5b50610152610a48565b60405161015f9190611181565b60405180910390f35b34801561017457600080fd5b5061017d610a4e565b60405161018a91906111fe565b60405180910390f35b34801561019f57600080fd5b506101a8610a74565b6040516101b591906113aa565b60405180910390f35b6101d860048036038101906101d39190611105565b610b8b565b005b3480156101e657600080fd5b5061020160048036038101906101fc9190611105565b610ed4565b604051610216999897969594939291906113db565b60405180910390f35b6060600260008373ffffffffffffffffffffffffffffffffffffffff1673ffffffffffffffffffffffffffffffffffffffff1681526020019081526020016000208054806020026020016040519081016040528092919081815260200182805480156102aa57602002820191906000526020600020905b815481526020019060010190808311610296575b50505050509050919050565b600181815481106102ca576102c9611468565b5b906000526020600020906009020160020160009054906101000a900473ffffffffffffffffffffffffffffffffffffffff1673ffffffffffffffffffffffffffffffffffffffff163373ffffffffffffffffffffffffffffffffffffffff1614610369576040517f08c379a0000000000000000000000000000000000000000000000000000000008152600401610360906114f4565b60405180910390fd5b6001818154811061037d5761037c611468565b5b906000526020600020906009020160080160009054906101000a900460ff166103db576040517f08c379a00000000000000000000000000000000000000000000000000000000081526004016103d290611560565b60405180910390fd5b60006064600183815481106103f3576103f2611468565b5b9060005260206000209060090201600301546001848154811061041957610418611468565b5b90600052602060002090600902016007015461043591906115af565b61043f9190611638565b6001838154811061045357610452611468565b5b90600052602060002090600902016007015461046f9190611669565b905060006001838154811061048757610486611468565b5b906000526020600020906009020160050154826104a491906116bf565b90506000813411156105015781346104bc91906116bf565b90506000600185815481106104d4576104d3611468565b5b906000526020600020906009020160080160006101000a81548160ff0219169083151502179055506105a7565b81340361054b5760006001858154811061051e5761051d611468565b5b906000526020600020906009020160080160006101000a81548160ff0219169083151502179055506105a6565b34600185815481106105605761055f611468565b5b90600052602060002090600902016005015461057c9190611669565b600185815481106105905761058f611468565b5b9060005260206000209060090201600501819055505b5b600360009054906101000a900473ffffffffffffffffffffffffffffffffffffffff1673ffffffffffffffffffffffffffffffffffffffff166108fc82346105ef91906116bf565b9081150290604051600060405180830381858888f1935050505015801561061a573d6000803e3d6000fd5b50600081111561066c573373ffffffffffffffffffffffffffffffffffffffff166108fc829081150290604051600060405180830381858888f1935050505015801561066a573d6000803e3d6000fd5b505b600184815481106106805761067f611468565b5b906000526020600020906009020160080160009054906101000a900460ff16610750576000600185815481106106b9576106b8611468565b5b9060005260206000209060090201600701819055506000600185815481106106e4576106e3611468565b5b90600052602060002090600902016001018190555060006001858154811061070f5761070e611468565b5b90600052602060002090600902016005018190555060006001858154811061073a57610739611468565b5b9060005260206000209060090201600601819055505b837fe69d7686a8bc68278b8c5419579f91716b3ef2ac2fac0d8cf80b8011f8f458a43360405161078091906111fe565b60405180910390a250505050565b600260205281600052604060002081815481106107aa57600080fd5b90600052602060002001600091509150505481565b600360009054906101000a900473ffffffffffffffffffffffffffffffffffffffff1673ffffffffffffffffffffffffffffffffffffffff163373ffffffffffffffffffffffffffffffffffffffff161461084f576040517f08c379a000000000000000000000000000000000000000000000000000000000815260040161084690611765565b60405180910390fd5b600160405180610120016040528060005481526020013481526020018573ffffffffffffffffffffffffffffffffffffffff168152602001838152602001848152602001600081526020016000815260200160008152602001600015158152509080600181540180825580915050600190039060005260206000209060090201600090919091909150600082015181600001556020820151816001015560408201518160020160006101000a81548173ffffffffffffffffffffffffffffffffffffffff021916908373ffffffffffffffffffffffffffffffffffffffff160217905550606082015181600301556080820151816004015560a0820151816005015560c0820151816006015560e082015181600701556101008201518160080160006101000a81548160ff0219169083151502179055505050600260008473ffffffffffffffffffffffffffffffffffffffff1673ffffffffffffffffffffffffffffffffffffffff16815260200190815260200160002060005490806001815401808255809150506001900390600052602060002001600090919091909150556000547fccd9cd820e2b4671af83ba36a745f27d9d52f2d2fb5068052def88b576e23f323485604051610a24929190611785565b60405180910390a2600080815480929190610a3e906117ae565b9190505550505050565b60005481565b600360009054906101000a900473ffffffffffffffffffffffffffffffffffffffff1681565b60606001805480602002602001604051908101604052809291908181526020016000905b82821015610b8257838290600052602060002090600902016040518061012001604052908160008201548152602001600182015481526020016002820160009054906101000a900473ffffffffffffffffffffffffffffffffffffffff1673ffffffffffffffffffffffffffffffffffffffff1673ffffffffffffffffffffffffffffffffffffffff16815260200160038201548152602001600482015481526020016005820154815260200160068201548152602001600782015481526020016008820160009054906101000a900460ff16151515158152505081526020019060010190610a98565b50505050905090565b60018181548110610b9f57610b9e611468565b5b906000526020600020906009020160020160009054906101000a900473ffffffffffffffffffffffffffffffffffffffff1673ffffffffffffffffffffffffffffffffffffffff163373ffffffffffffffffffffffffffffffffffffffff1614610c3e576040517f08c379a0000000000000000000000000000000000000000000000000000000008152600401610c35906114f4565b60405180910390fd5b600060018281548110610c5457610c53611468565b5b90600052602060002090600902016001015411610ca6576040517f08c379a0000000000000000000000000000000000000000000000000000000008152600401610c9d90611842565b60405180910390fd5b60018181548110610cba57610cb9611468565b5b90600052602060002090600902016004015460018281548110610ce057610cdf611468565b5b906000526020600020906009020160060154610cfc9190611669565b4211610d3d576040517f08c379a0000000000000000000000000000000000000000000000000000000008152600401610d34906118d4565b60405180910390fd5b600060018281548110610d5357610d52611468565b5b90600052602060002090600902016007015403610d95574260018281548110610d7f57610d7e611468565b5b9060005260206000209060090201600601819055505b600060018281548110610dab57610daa611468565b5b9060005260206000209060090201600101549050600060018381548110610dd557610dd4611468565b5b9060005260206000209060090201600101819055508060018381548110610dff57610dfe611468565b5b9060005260206000209060090201600701819055506001808381548110610e2957610e28611468565b5b906000526020600020906009020160080160006101000a81548160ff0219169083151502179055503373ffffffffffffffffffffffffffffffffffffffff166108fc829081150290604051600060405180830381858888f19350505050158015610e97573d6000803e3d6000fd5b50817f6e02acee5001c9c48e033cce6e7193e2717a4dc1d239424dcf41e995471f638533604051610ec891906111fe565b60405180910390a25050565b60018181548110610ee457600080fd5b90600052602060002090600902016000915090508060000154908060010154908060020160009054906101000a900473ffffffffffffffffffffffffffffffffffffffff16908060030154908060040154908060050154908060060154908060070154908060080160009054906101000a900460ff16905089565b600080fd5b600073ffffffffffffffffffffffffffffffffffffffff82169050919050565b6000610f8f82610f64565b9050919050565b610f9f81610f84565b8114610faa57600080fd5b50565b600081359050610fbc81610f96565b92915050565b600060208284031215610fd857610fd7610f5f565b5b6000610fe684828501610fad565b91505092915050565b600081519050919050565b600082825260208201905092915050565b6000819050602082019050919050565b6000819050919050565b61102e8161101b565b82525050565b60006110408383611025565b60208301905092915050565b6000602082019050919050565b600061106482610fef565b61106e8185610ffa565b93506110798361100b565b8060005b838110156110aa5781516110918882611034565b975061109c8361104c565b92505060018101905061107d565b5085935050505092915050565b600060208201905081810360008301526110d18184611059565b905092915050565b6110e28161101b565b81146110ed57600080fd5b50565b6000813590506110ff816110d9565b92915050565b60006020828403121561111b5761111a610f5f565b5b6000611129848285016110f0565b91505092915050565b6000806040838503121561114957611148610f5f565b5b600061115785828601610fad565b9250506020611168858286016110f0565b9150509250929050565b61117b8161101b565b82525050565b60006020820190506111966000830184611172565b92915050565b6000806000606084860312156111b5576111b4610f5f565b5b60006111c386828701610fad565b93505060206111d4868287016110f0565b92505060406111e5868287016110f0565b9150509250925092565b6111f881610f84565b82525050565b600060208201905061121360008301846111ef565b92915050565b600081519050919050565b600082825260208201905092915050565b6000819050602082019050919050565b61124e81610f84565b82525050565b60008115159050919050565b61126981611254565b82525050565b610120820160008201516112866000850182611025565b5060208201516112996020850182611025565b5060408201516112ac6040850182611245565b5060608201516112bf6060850182611025565b5060808201516112d26080850182611025565b5060a08201516112e560a0850182611025565b5060c08201516112f860c0850182611025565b5060e082015161130b60e0850182611025565b50610100820151611320610100850182611260565b50505050565b6000611332838361126f565b6101208301905092915050565b6000602082019050919050565b600061135782611219565b6113618185611224565b935061136c83611235565b8060005b8381101561139d5781516113848882611326565b975061138f8361133f565b925050600181019050611370565b5085935050505092915050565b600060208201905081810360008301526113c4818461134c565b905092915050565b6113d581611254565b82525050565b6000610120820190506113f1600083018c611172565b6113fe602083018b611172565b61140b604083018a6111ef565b6114186060830189611172565b6114256080830188611172565b61143260a0830187611172565b61143f60c0830186611172565b61144c60e0830185611172565b61145a6101008301846113cc565b9a9950505050505050505050565b7f4e487b7100000000000000000000000000000000000000000000000000000000600052603260045260246000fd5b600082825260208201905092915050565b7f596f75206d7573742062652074686520626f72726f7765720000000000000000600082015250565b60006114de601883611497565b91506114e9826114a8565b602082019050919050565b6000602082019050818103600083015261150d816114d1565b9050919050565b7f4d75737420626520616e20616374697665206c6f616e00000000000000000000600082015250565b600061154a601683611497565b915061155582611514565b602082019050919050565b600060208201905081810360008301526115798161153d565b9050919050565b7f4e487b7100000000000000000000000000000000000000000000000000000000600052601160045260246000fd5b60006115ba8261101b565b91506115c58361101b565b9250817fffffffffffffffffffffffffffffffffffffffffffffffffffffffffffffffff04831182151516156115fe576115fd611580565b5b828202905092915050565b7f4e487b7100000000000000000000000000000000000000000000000000000000600052601260045260246000fd5b60006116438261101b565b915061164e8361101b565b92508261165e5761165d611609565b5b828204905092915050565b60006116748261101b565b915061167f8361101b565b9250827fffffffffffffffffffffffffffffffffffffffffffffffffffffffffffffffff038211156116b4576116b3611580565b5b828201905092915050565b60006116ca8261101b565b91506116d58361101b565b9250828210156116e8576116e7611580565b5b828203905092915050565b7f596f75206d75737420626520746865206f776e6572206f66207468652061676560008201527f6e63790000000000000000000000000000000000000000000000000000000000602082015250565b600061174f602383611497565b915061175a826116f3565b604082019050919050565b6000602082019050818103600083015261177e81611742565b9050919050565b600060408201905061179a6000830185611172565b6117a760208301846111ef565b9392505050565b60006117b98261101b565b91507fffffffffffffffffffffffffffffffffffffffffffffffffffffffffffffffff82036117eb576117ea611580565b5b600182019050919050565b7f4e6f2066756e647320617661696c61626c650000000000000000000000000000600082015250565b600061182c601283611497565b9150611837826117f6565b602082019050919050565b6000602082019050818103600083015261185b8161181f565b9050919050565b7f4c6f616e2065787069726564206d75737420626520726570617965642066697260008201527f7374000000000000000000000000000000000000000000000000000000000000602082015250565b60006118be602283611497565b91506118c982611862565b604082019050919050565b600060208201905081810360008301526118ed816118b1565b905091905056fea26469706673582212206a5ea53c0769e1bf4d46da16d12125517d3da7522295aec2be0051e6e78f2ef064736f6c634300080d0033",
  "immutableReferences": {},
  "source": "// SPDX-License-Identifier: UNLICENSED\npragma solidity >=0.8.0;\n\n// import \"./Lending.sol\";\n\ncontract LendingAgency {\n    struct Loan {\n        uint256 id;\n        uint256 availableFunds;\n        address borrower;\n        uint256 interest;\n        uint256 repayTime;\n        uint256 repayed;\n        uint256 loanStartTime;\n        uint256 borrowed;\n        bool isLoanActive;\n    }\n\n    uint256 public currentLoanId = 0;\n    Loan[] public loans;\n    mapping(address => uint256[]) public userLoanIds;\n    address public owner;\n\n    event LoanGranted(\n        uint256 indexed id,\n        uint256 availableFunds,\n        address borrower\n    );\n    event LoanBorrowed(uint256 indexed id, address borrower);\n    event LoanRepaid(uint256 indexed id, address borrower);\n\n    constructor() {\n        owner = msg.sender;\n    }\n\n    function grantLoan(\n        address _borrower,\n        uint256 _repayTime,\n        uint256 _interest\n    ) public payable {\n        require(msg.sender == owner, \"You must be the owner of the agency\");\n        loans.push(\n            Loan(\n                currentLoanId,\n                msg.value,\n                payable(_borrower),\n                _interest,\n                _repayTime,\n                0,\n                0,\n                0,\n                false\n            )\n        );\n        userLoanIds[_borrower].push(currentLoanId);\n        emit LoanGranted(currentLoanId, msg.value, _borrower);\n        currentLoanId++;\n    }\n\n    function getLoans() public view returns (Loan[] memory) {\n        return loans;\n    }\n\n    function getUserLoanIds(\n        address _borrower\n    ) public view returns (uint256[] memory) {\n        return userLoanIds[_borrower];\n    }\n\n    function borrow(uint256 _loanId) public payable {\n        require(\n            msg.sender == loans[_loanId].borrower,\n            \"You must be the borrower\"\n        );\n        require(loans[_loanId].availableFunds > 0, \"No funds available\");\n        require(\n            block.timestamp >\n                loans[_loanId].loanStartTime + loans[_loanId].repayTime,\n            \"Loan expired must be repayed first\"\n        );\n\n        if (loans[_loanId].borrowed == 0) {\n            loans[_loanId].loanStartTime = block.timestamp;\n        }\n        uint256 _amount = loans[_loanId].availableFunds;\n        loans[_loanId].availableFunds = 0;\n        loans[_loanId].borrowed = _amount;\n        loans[_loanId].isLoanActive = true;\n        payable(msg.sender).transfer(_amount);\n        emit LoanBorrowed(_loanId, msg.sender);\n    }\n\n    function repay(uint256 _loanId) public payable {\n        require(\n            msg.sender == loans[_loanId].borrower,\n            \"You must be the borrower\"\n        );\n        require(loans[_loanId].isLoanActive, \"Must be an active loan\");\n        uint256 amountToRepay = loans[_loanId].borrowed +\n            ((loans[_loanId].borrowed * loans[_loanId].interest) / 100);\n        uint256 leftToPay = amountToRepay - loans[_loanId].repayed;\n        uint256 exceeding = 0;\n\n        if (msg.value > leftToPay) {\n            exceeding = msg.value - leftToPay;\n            loans[_loanId].isLoanActive = false;\n        } else if (msg.value == leftToPay) {\n            loans[_loanId].isLoanActive = false;\n        } else {\n            loans[_loanId].repayed = loans[_loanId].repayed + msg.value;\n        }\n\n        payable(owner).transfer(msg.value - exceeding);\n        if (exceeding > 0) {\n            payable(msg.sender).transfer(exceeding);\n        }\n\n        // Reset everything\n        if (!loans[_loanId].isLoanActive) {\n            loans[_loanId].borrowed = 0;\n            loans[_loanId].availableFunds = 0;\n            loans[_loanId].repayed = 0;\n            loans[_loanId].loanStartTime = 0;\n        }\n        emit LoanRepaid(_loanId, msg.sender);\n    }\n}\n",
  "sourcePath": "/Users/alex/Projects/personal/lending-agency-2/smart_contracts/contracts/LendingAgency.sol",
  "compiler": {
    "name": "solc",
    "version": "0.8.13+commit.abaa5c0e.Emscripten.clang"
  },
  "schemaVersion": "3.4.16",
  "updatedAt": "2024-05-27T17:42:06.440Z",
  "networkType": "ethereum",
  "devdoc": {
    "kind": "dev",
    "methods": {},
    "version": 1
  },
  "userdoc": {
    "kind": "user",
    "methods": {},
    "version": 1
  }
}