{
  "contractName": "Lending",
  "abi": [
    {
      "inputs": [
        {
          "internalType": "address",
          "name": "_borrower",
          "type": "address"
        },
        {
          "internalType": "uint256",
          "name": "_repayTime",
          "type": "uint256"
        },
        {
          "internalType": "uint256",
          "name": "_interest",
          "type": "uint256"
        }
      ],
      "stateMutability": "payable",
      "type": "constructor"
    },
    {
      "inputs": [],
      "name": "availableFunds",
      "outputs": [
        {
          "internalType": "uint256",
          "name": "",
          "type": "uint256"
        }
      ],
      "stateMutability": "view",
      "type": "function"
    },
    {
      "inputs": [],
      "name": "borrowed",
      "outputs": [
        {
          "internalType": "uint256",
          "name": "",
          "type": "uint256"
        }
      ],
      "stateMutability": "view",
      "type": "function"
    },
    {
      "inputs": [],
      "name": "borrower",
      "outputs": [
        {
          "internalType": "address",
          "name": "",
          "type": "address"
        }
      ],
      "stateMutability": "view",
      "type": "function"
    },
    {
      "inputs": [],
      "name": "depositor",
      "outputs": [
        {
          "internalType": "address",
          "name": "",
          "type": "address"
        }
      ],
      "stateMutability": "view",
      "type": "function"
    },
    {
      "inputs": [],
      "name": "interest",
      "outputs": [
        {
          "internalType": "uint256",
          "name": "",
          "type": "uint256"
        }
      ],
      "stateMutability": "view",
      "type": "function"
    },
    {
      "inputs": [],
      "name": "isLoanActive",
      "outputs": [
        {
          "internalType": "bool",
          "name": "",
          "type": "bool"
        }
      ],
      "stateMutability": "view",
      "type": "function"
    },
    {
      "inputs": [],
      "name": "loanStartTime",
      "outputs": [
        {
          "internalType": "uint256",
          "name": "",
          "type": "uint256"
        }
      ],
      "stateMutability": "view",
      "type": "function"
    },
    {
      "inputs": [],
      "name": "repayTime",
      "outputs": [
        {
          "internalType": "uint256",
          "name": "",
          "type": "uint256"
        }
      ],
      "stateMutability": "view",
      "type": "function"
    },
    {
      "inputs": [],
      "name": "repayed",
      "outputs": [
        {
          "internalType": "uint256",
          "name": "",
          "type": "uint256"
        }
      ],
      "stateMutability": "view",
      "type": "function"
    },
    {
      "inputs": [],
      "name": "deposit",
      "outputs": [],
      "stateMutability": "payable",
      "type": "function"
    },
    {
      "inputs": [
        {
          "internalType": "uint256",
          "name": "_amount",
          "type": "uint256"
        }
      ],
      "name": "borrow",
      "outputs": [],
      "stateMutability": "nonpayable",
      "type": "function"
    },
    {
      "inputs": [],
      "name": "repay",
      "outputs": [],
      "stateMutability": "payable",
      "type": "function"
    }
  ],
  "bytecode": "0x6080604052600a600355604051620010cc380380620010cc83398181016040528101906200002e919062000227565b82600260006101000a81548173ffffffffffffffffffffffffffffffffffffffff021916908373ffffffffffffffffffffffffffffffffffffffff160217905550816004819055508060038190555033600160006101000a81548173ffffffffffffffffffffffffffffffffffffffff021916908373ffffffffffffffffffffffffffffffffffffffff160217905550620000ce620000d760201b60201c565b50505062000392565b600160009054906101000a900473ffffffffffffffffffffffffffffffffffffffff1673ffffffffffffffffffffffffffffffffffffffff163373ffffffffffffffffffffffffffffffffffffffff16146200016a576040517f08c379a00000000000000000000000000000000000000000000000000000000081526004016200016190620002e4565b60405180910390fd5b346000546200017a919062000335565b600081905550565b600080fd5b600073ffffffffffffffffffffffffffffffffffffffff82169050919050565b6000620001b48262000187565b9050919050565b620001c681620001a7565b8114620001d257600080fd5b50565b600081519050620001e681620001bb565b92915050565b6000819050919050565b6200020181620001ec565b81146200020d57600080fd5b50565b6000815190506200022181620001f6565b92915050565b60008060006060848603121562000243576200024262000182565b5b60006200025386828701620001d5565b9350506020620002668682870162000210565b9250506040620002798682870162000210565b9150509250925092565b600082825260208201905092915050565b7f596f75206d75737420626520746865206465706f7369746f7200000000000000600082015250565b6000620002cc60198362000283565b9150620002d98262000294565b602082019050919050565b60006020820190508181036000830152620002ff81620002bd565b9050919050565b7f4e487b7100000000000000000000000000000000000000000000000000000000600052601160045260246000fd5b60006200034282620001ec565b91506200034f83620001ec565b9250827fffffffffffffffffffffffffffffffffffffffffffffffffffffffffffffffff0382111562000387576200038662000306565b5b828201905092915050565b610d2a80620003a26000396000f3fe6080604052600436106100a75760003560e01c80638d0f3e21116100645780638d0f3e211461018d578063c392f766146101b8578063c5ebeaec146101e3578063c7c4ff461461020c578063d0e30db014610237578063f704316414610241576100a7565b80632efb15de146100ac578063402d8883146100d757806346fcff4c146100e157806369609c421461010c5780637df1f1b914610137578063850c4ca014610162575b600080fd5b3480156100b857600080fd5b506100c161026c565b6040516100ce91906107b9565b60405180910390f35b6100df61027f565b005b3480156100ed57600080fd5b506100f6610480565b60405161010391906107ed565b60405180910390f35b34801561011857600080fd5b50610121610486565b60405161012e91906107ed565b60405180910390f35b34801561014357600080fd5b5061014c61048c565b6040516101599190610849565b60405180910390f35b34801561016e57600080fd5b506101776104b2565b60405161018491906107ed565b60405180910390f35b34801561019957600080fd5b506101a26104b8565b6040516101af91906107ed565b60405180910390f35b3480156101c457600080fd5b506101cd6104be565b6040516101da91906107ed565b60405180910390f35b3480156101ef57600080fd5b5061020a60048036038101906102059190610895565b6104c4565b005b34801561021857600080fd5b506102216106cc565b60405161022e9190610849565b60405180910390f35b61023f6106f2565b005b34801561024d57600080fd5b50610256610798565b60405161026391906107ed565b60405180910390f35b600860009054906101000a900460ff1681565b600860009054906101000a900460ff166102ce576040517f08c379a00000000000000000000000000000000000000000000000000000000081526004016102c59061091f565b60405180910390fd5b600060646003546007546102e2919061096e565b6102ec91906109f7565b6007546102f99190610a28565b905060006005548261030b9190610a7e565b90506000813411156103455781346103239190610a7e565b90506000600860006101000a81548160ff021916908315150217905550610382565b81340361036c576000600860006101000a81548160ff021916908315150217905550610381565b3460055461037a9190610a28565b6005819055505b5b600160009054906101000a900473ffffffffffffffffffffffffffffffffffffffff1673ffffffffffffffffffffffffffffffffffffffff166108fc82346103ca9190610a7e565b9081150290604051600060405180830381858888f193505050501580156103f5573d6000803e3d6000fd5b506000811115610447573373ffffffffffffffffffffffffffffffffffffffff166108fc829081150290604051600060405180830381858888f19350505050158015610445573d6000803e3d6000fd5b505b600860009054906101000a900460ff1661047b57600060078190555060008081905550600060058190555060006006819055505b505050565b60005481565b60075481565b600260009054906101000a900473ffffffffffffffffffffffffffffffffffffffff1681565b60065481565b60055481565b60035481565b600260009054906101000a900473ffffffffffffffffffffffffffffffffffffffff1673ffffffffffffffffffffffffffffffffffffffff163373ffffffffffffffffffffffffffffffffffffffff1614610554576040517f08c379a000000000000000000000000000000000000000000000000000000000815260040161054b90610afe565b60405180910390fd5b60008111610597576040517f08c379a000000000000000000000000000000000000000000000000000000000815260040161058e90610b6a565b60405180910390fd5b8060005410156105dc576040517f08c379a00000000000000000000000000000000000000000000000000000000081526004016105d390610bd6565b60405180910390fd5b6004546006546105ec9190610a28565b421161062d576040517f08c379a000000000000000000000000000000000000000000000000000000000815260040161062490610c68565b60405180910390fd5b60006007540361063f57426006819055505b8060005461064d9190610a7e565b600081905550806007546106619190610a28565b6007819055506001600860006101000a81548160ff0219169083151502179055503373ffffffffffffffffffffffffffffffffffffffff166108fc829081150290604051600060405180830381858888f193505050501580156106c8573d6000803e3d6000fd5b5050565b600160009054906101000a900473ffffffffffffffffffffffffffffffffffffffff1681565b600160009054906101000a900473ffffffffffffffffffffffffffffffffffffffff1673ffffffffffffffffffffffffffffffffffffffff163373ffffffffffffffffffffffffffffffffffffffff1614610782576040517f08c379a000000000000000000000000000000000000000000000000000000000815260040161077990610cd4565b60405180910390fd5b346000546107909190610a28565b600081905550565b60045481565b60008115159050919050565b6107b38161079e565b82525050565b60006020820190506107ce60008301846107aa565b92915050565b6000819050919050565b6107e7816107d4565b82525050565b600060208201905061080260008301846107de565b92915050565b600073ffffffffffffffffffffffffffffffffffffffff82169050919050565b600061083382610808565b9050919050565b61084381610828565b82525050565b600060208201905061085e600083018461083a565b92915050565b600080fd5b610872816107d4565b811461087d57600080fd5b50565b60008135905061088f81610869565b92915050565b6000602082840312156108ab576108aa610864565b5b60006108b984828501610880565b91505092915050565b600082825260208201905092915050565b7f4d75737420626520616e20616374697665206c6f616e00000000000000000000600082015250565b60006109096016836108c2565b9150610914826108d3565b602082019050919050565b60006020820190508181036000830152610938816108fc565b9050919050565b7f4e487b7100000000000000000000000000000000000000000000000000000000600052601160045260246000fd5b6000610979826107d4565b9150610984836107d4565b9250817fffffffffffffffffffffffffffffffffffffffffffffffffffffffffffffffff04831182151516156109bd576109bc61093f565b5b828202905092915050565b7f4e487b7100000000000000000000000000000000000000000000000000000000600052601260045260246000fd5b6000610a02826107d4565b9150610a0d836107d4565b925082610a1d57610a1c6109c8565b5b828204905092915050565b6000610a33826107d4565b9150610a3e836107d4565b9250827fffffffffffffffffffffffffffffffffffffffffffffffffffffffffffffffff03821115610a7357610a7261093f565b5b828201905092915050565b6000610a89826107d4565b9150610a94836107d4565b925082821015610aa757610aa661093f565b5b828203905092915050565b7f596f75206d7573742062652074686520626f72726f7765720000000000000000600082015250565b6000610ae86018836108c2565b9150610af382610ab2565b602082019050919050565b60006020820190508181036000830152610b1781610adb565b9050919050565b7f4d75737420626f72726f7720736f6d657468696e670000000000000000000000600082015250565b6000610b546015836108c2565b9150610b5f82610b1e565b602082019050919050565b60006020820190508181036000830152610b8381610b47565b9050919050565b7f4e6f2066756e647320617661696c61626c650000000000000000000000000000600082015250565b6000610bc06012836108c2565b9150610bcb82610b8a565b602082019050919050565b60006020820190508181036000830152610bef81610bb3565b9050919050565b7f4c6f616e2065787069726564206d75737420626520726570617965642066697260008201527f7374000000000000000000000000000000000000000000000000000000000000602082015250565b6000610c526022836108c2565b9150610c5d82610bf6565b604082019050919050565b60006020820190508181036000830152610c8181610c45565b9050919050565b7f596f75206d75737420626520746865206465706f7369746f7200000000000000600082015250565b6000610cbe6019836108c2565b9150610cc982610c88565b602082019050919050565b60006020820190508181036000830152610ced81610cb1565b905091905056fea2646970667358221220da5e09c71b76343579134b40ad286b0a963b86ba7a6244c0e3c07740c1ffb53b64736f6c634300080d0033",
  "immutableReferences": {},
  "source": "// SPDX-License-Identifier: UNLICENSED\npragma solidity >=0.8.0;\n\ncontract Lending {\n    uint256 public availableFunds;\n    address public depositor;\n    address public borrower;\n    uint256 public interest = 10;\n    uint256 public repayTime;\n    uint256 public repayed;\n    uint256 public loanStartTime;\n    uint256 public borrowed;\n    bool public isLoanActive;\n\n    constructor(\n        address _borrower,\n        uint256 _repayTime,\n        uint256 _interest\n    ) payable {\n        borrower = _borrower;\n        repayTime = _repayTime;\n        interest = _interest;\n        depositor = msg.sender;\n        deposit();\n    }\n\n    function deposit() public payable {\n        require(msg.sender == depositor, \"You must be the depositor\");\n        availableFunds = availableFunds + msg.value;\n    }\n\n    function borrow(uint256 _amount) public {\n        require(msg.sender == borrower, \"You must be the borrower\");\n        require(_amount > 0, \"Must borrow something\");\n        require(availableFunds >= _amount, \"No funds available\");\n        require(\n            block.timestamp > loanStartTime + repayTime,\n            \"Loan expired must be repayed first\"\n        );\n\n        if (borrowed == 0) {\n            loanStartTime = block.timestamp;\n        }\n        availableFunds = availableFunds - _amount;\n        borrowed = borrowed + _amount;\n        isLoanActive = true;\n        payable(msg.sender).transfer(_amount);\n    }\n\n    function repay() public payable {\n        require(isLoanActive, \"Must be an active loan\");\n        uint256 amountToRepay = borrowed + ((borrowed * interest) / 100);\n        uint256 leftToPay = amountToRepay - repayed;\n        uint256 exceeding = 0;\n\n        if (msg.value > leftToPay) {\n            exceeding = msg.value - leftToPay;\n            isLoanActive = false;\n        } else if (msg.value == leftToPay) {\n            isLoanActive = false;\n        } else {\n            repayed = repayed + msg.value;\n        }\n\n        payable(depositor).transfer(msg.value - exceeding);\n        if (exceeding > 0) {\n            payable(msg.sender).transfer(exceeding);\n        }\n\n        // Reset everything\n        if (!isLoanActive) {\n            borrowed = 0;\n            availableFunds = 0;\n            repayed = 0;\n            loanStartTime = 0;\n        }\n    }\n}\n",
  "sourcePath": "/Users/alex/Projects/personal/lending-agency-2/smart_contracts/contracts/Lending.sol",
  "compiler": {
    "name": "solc",
    "version": "0.8.13+commit.abaa5c0e.Emscripten.clang"
  },
  "schemaVersion": "3.4.16",
  "updatedAt": "2024-05-27T17:42:00.867Z",
  "devdoc": {
    "kind": "dev",
    "methods": {},
    "version": 1
  },
  "userdoc": {
    "kind": "user",
    "methods": {},
    "version": 1
  }
}